:020000040800F2
:1000000090040020C1010008370F0008BD0E000851
:10001000350F0008CD020008E111000800000000C3
:100020000000000000000000000000003B0F00087E
:10003000CF02000800000000390F00083D0F000843
:10004000DB010008DB010008DB010008DB01000820
:10005000DB010008DB010008DB010008DB01000810
:10006000DB010008DB010008DB010008DB01000800
:10007000DB010008DB010008DB010008DB010008F0
:10008000DB010008DB010008DB010008DB010008E0
:10009000DB010008DB010008DB010008DB010008D0
:1000A000DB010008DB010008DB010008DB010008C0
:1000B000DB010008DB010008DB010008DB010008B0
:1000C000DB010008DB010008DB010008DB010008A0
:1000D000DB010008DB010008DB010008DB01000890
:1000E000DB010008DB010008DB010008DB01000880
:1000F000DB010008DB010008DB010008DB01000870
:10010000DB010008DB010008DB010008DB0100085F
:10011000DB010008DB010008E50F0008DB01000837
:10012000DB010008DB010008DB010008DB0100083F
:10013000DB010008DB010008DB010008DB0100082F
:10014000DB010008DB010008DB010008DB0100081F
:10015000DB010008DB010008DB010008DB0100080F
:10016000DB010008DB010008DB010008DB010008FF
:10017000DB010008DB010008DB01000800000000D3
:10018000DB010008DB010008DB010008DB010008DF
:10019000DB010008DB010008DB010008DB010008CF
:1001A000DB010008DB010008DB010008DFF80CD0F0
:1001B00000F07AF8004800479912000890040020E7
:1001C0000648804706480047FEE7FEE7FEE7FEE7F1
:1001D000FEE7FEE7FEE7FEE7FEE7FEE7C90F0008E1
:1001E000AD0100082DE9F05F0546002092469B46D0
:1001F00088460646814640241BE02846414647463D
:10020000224600F041F853465A46C01A914110D395
:1002100011461846224600F028F82D1A67EB01080F
:100220004F4622460120002100F01FF817EB00097D
:100230004E41201EA4F10104DFDC484631462A4627
:100240004346BDE8F09FD2B201E000F8012B491E01
:10025000FBD270470022F6E710B513460A46044663
:100260001946FFF7F0FF204610BD202A04DB203A94
:1002700000FA02F1002070479140C2F1200320FAF9
:1002800003F3194390407047202A04DB203A21FAF7
:1002900002F00021704721FA02F3D040C2F120029F
:1002A0009140084319467047064C074D06E0E06848
:1002B00040F0010394E8070098471034AC42F6D3AD
:1002C000FFF778FFC8120008E8120008FEE7704741
:1002D000704700002DE9F84F00224FF00108032578
:1002E0004FF00F0E0B6808FA02F42340A3426ED1C0
:1002F0004E68012E05D0022E03D0112E01D0122EF1
:1003000012D186684FEA420C05FA0CF7BE43CF685B
:1003100007FA0CF7374387604668A6430C79C4F3A5
:100320000014944034434460C668570005FA07FC43
:100330008C6826EA0C06BC403443C4604C68022C2E
:1003400001D0122C13D1D40800EB8404A346D4F8B6
:10035000209054074FEAD46A0EFA0AF629EA0609F1
:100360000E6906FA0AF646EA0906CBF82060046828
:100370000E7924EA0C0406F00306BE40264306600C
:100380004C68E4006FD53B4C266846F480462660F6
:10039000246822F0030604F480440094364C34446C
:1003A000A446D4F808489607360F0EFA06F7BC4361
:1003B000324FB84201D100272EE0314FB84201D16F
:1003C000012729E02F4FB84202D1022724E04AE05A
:1003D0002D4FB84201D103271EE02C4FB84201D166
:1003E000042719E02A4FB84201D1052714E0294F0C
:1003F000B84201D106270FE0274FB84201D10727A5
:100400000AE0264FB84201D1082705E0244FB84240
:1004100001D1092700E00A27B7402743CCF8087824
:10042000204E34684F689C43FF0300D51C43346062
:100430001C4E361D34684F689C43BF0300D51C43D7
:100440003460184E083634684F689C43FF0200D56C
:100450001C433460134E0C3634684F689C43BF0213
:1004600000D51C433460521C102AFFF43BAFBDE89A
:10047000F88F000044380240003001400000024084
:100480000004024000080240000C0240001002403C
:100490000014024000180240001C024000200240EC
:1004A00000240240003C01400AB181617047090408
:1004B000FBE7000001488068704700000000002052
:1004C0000248816802781144816070470000002072
:1004D0000B4810B5016841F400710160016841F4F6
:1004E00080610160016841F480710160032000F0C7
:1004F00089F8002000F006F800F03EF8002010BD5A
:10050000003C024010B5014688B00022362000F0C1
:1005100059F8362000F048F813480024016841F0EB
:1005200010010160006805A900F0100006906846FF
:1005300000F04CF900F06AF90C494000B0FBF1F111
:100540000C480B4A491E026040F2E732C0E903241E
:10055000C0E9011400F05CFB10B1012008B010BD2F
:10056000044800F071FBF9E74038024040420F00B8
:1005700000100040500000200A4808B5016841F40E
:1005800080410160006800F4804000900548001F31
:10059000016841F080510160006800F080500090D7
:1005A00008BD000044380240002809DB00F01F02AB
:1005B000012191404009800000F1E020C0F80011C5
:1005C00070470000F0B40E4B1B680C46C3F30223C7
:1005D000C3F10705042D00D90425191D072901D2EF
:1005E000002300E0DB1E012606FA05F1491E21402A
:1005F00099409E40761E16403143F0BC00F0F1BD9C
:100600000CED00E0064900F0070208684FF6FF0312
:10061000184040EA0220034A104308607047000077
:100620000CED00E00000FA052DE9F84317480168D9
:1006300041F0805101600068154F00F080500126A4
:1006400000903E64FFF736FF05464FF47A78114C70
:1006500005E000BFFFF72EFF401B40450DD8606846
:10066000C003F7D57E64FFF725FF0546464607E041
:10067000FFF720FF401BB04202D90320BDE8F883FA
:1006800060688003F4D50020F8E70000403802409D
:1006900000000E42007000402DE9F0470E460500B4
:1006A00065D0DFF81481D8F80000F7B200F00F0031
:1006B000B04207D288F80070D8F8000000F00F00B0
:1006C000B04254D128683D4C810712D5400703D56C
:1006D000206840F4E05020602878000703D52068A7
:1006E00040F4604020602068A96820F0F0000843D2
:1006F00020602878C0072DD0304968680839012863
:1007000012D0022813D0032811D0096889070029C4
:100710002DDA216821F0030101432160FFF7CAFEB1
:10072000814641F2883A0EE009688903EFE70968DB
:100730008901ECE7FFF7BEFEA0EB0901514502D9A4
:100740000320BDE8F0872068696800F00C00B0EB7A
:10075000810FEFD1D8F80010404601F00F01B142EF
:1007600007D90770006800F00F00B04201D00120E7
:10077000E7E72878400705D52068E96820F4E050CD
:10078000084320602878000706D52068296920F4EE
:10079000604040EAC100206000F058F82168084A33
:1007A000C1F30311515CC84006490860064800685F
:1007B000FFF7A8FE0020C4E7003C024008380240D2
:1007C000AE1200080C000020040000200F2202607E
:1007D0000C4A136803F003034360136803F0F0034B
:1007E0008360136803F4E053C36012684FF4E0536E
:1007F00003EAD20202610448006800F00F000860BA
:100800007047000008380240003C02400448054997
:1008100000680968044AC1F38221515CC8407047EE
:100820000C00002008380240BE12000804480549A8
:1008300000680968044AC1F34231515CC8407047FE
:100840000C00002008380240BE120008154810B500
:10085000006810F00C02144813D01449042A0FD079
:10086000082A0ED10F4C241F2268236802F03F0291
:100870005B0207D52068C0F38810A0FB010106E0E9
:10088000084610BD2168C1F38811A1FB00010023B7
:10089000FFF7A8FC2168C1F30141491C4900B0FBE6
:1008A000F1F010BD083802400024F40040787D01CA
:1008B0002DE9F84F04006ED02078DFF83C93C00794
:1008C000A9F104054AD009F104000168C1F38101CE
:1008D000012908D00068C0F3810002280AD1D9F8A4
:1008E0000000400206D52868800337D560680028DC
:1008F000E1D033E06068B0F5803F10D0B0F5A02FB4
:10090000286810D020F480302860286820F48020E7
:1009100028606068A8B1FFF7CDFD06460DE02868A5
:1009200040F48030F4E740F480202860F7E700BF0F
:10093000FFF7C0FD801B642873D828688003F7D5B3
:100940000CE0FFF7B7FD064605E000BFFFF7B2FD7C
:10095000801B6428F0D828688003F7D42078DFF85B
:100960009C8280074FF0000A3ED5A348001D016815
:1009700011F00C0F08D00068C0F3810002280BD1E1
:10098000D9F80000400207D42868800716D5E0682F
:10099000012800D112E02BE1E068B8B10120C8F8CD
:1009A0000000FFF787FD064605E000BFFFF782FD68
:1009B000801B0228C0D828688007F7D528682169DD
:1009C00020F0F80040EAC10028600DE0C8F800A05F
:1009D000FFF770FD064604E0FFF76CFD801B022860
:1009E0001FD828688007F7D42078000722D5824EC8
:1009F00083486169703671B101210160FFF75AFDCA
:100A0000074604E0FFF756FDC01B022809D83068EE
:100A10008007F7D50EE0C0F800A0FFF74BFD0746B2
:100A200005E082E0FFF746FDC01B02287DD8306854
:100A30008007F7D42078400768D5DFF8BCB10027DD
:100A40000BF13C0BDBF80000C0000BD4DBF800100E
:100A500041F08051CBF80010DBF80000012700F0D6
:100A600080500090674E3068C00510D4306840F464
:100A700080703060FFF71EFD009005E0FFF71AFD63
:100A80000099401A022850D83068C005F6D55A4E51
:100A9000A0686C3601280FD00528306810D020F0EF
:100AA00001003060306820F004003060A068B8B108
:100AB000FFF700FD00900FE0306840F00100F4E720
:100AC00040F004003060F7E7FFF7F4FC0099411AAA
:100AD00041F28830814266D830688007F4D50EE054
:100AE000FFF7E8FC009007E0FFF7E4FC0099411AEB
:100AF00041F28830814256D830688007F4D42FB153
:100B0000DBF8001021F08051CBF80010A069C8B3C9
:100B10003949091D0968C1F3810102294AD0022817
:100B2000504607D0C8F8600000E03CE0FFF7C2FC88
:100B300004463BE04746C8F86000FFF7BBFC0646AA
:100B400005E000BFFFF7B6FC801B02282BD8286801
:100B50008001F7D4D4E907010843A16A2A4A490869
:100B600002EB0141626A41EA8211084394F82C10B9
:100B700040EA0161C9F8001001203866FFF79AFCCD
:100B8000044606E036E000BFFFF794FC001B022895
:100B900009D828688001F7D52CE000BFFFF78AFC50
:100BA000001B022802D90320BDE8F88F28688001C5
:100BB000F4D41FE00128F7D0D9F80000E26900F46E
:100BC0008001914214D1226A00F03F0191420FD17D
:100BD00047F6C071626A0140914209D1A26A00F4ED
:100BE0004031914204D1E16A00F07060884201D046
:100BF0000120D9E70020D7E704380240000047422F
:100C0000800E4742007000400000FFFF70477047B1
:100C100010B5040003D094F83D0010B107E00120A6
:100C200010BD002084F83C00204600F00CF80220A3
:100C300084F83D00211D206800F0DAF9012084F8D5
:100C40003D00002010BD70470168CA6842F00102F3
:100C5000CA600068816801F00701062903D00168B5
:100C600041F00101016000207047704770B50446F3
:100C7000006801694FF00005C943890715D4C168B0
:100C8000C943890711D4E91E01610120207720683A
:100C900080698007204602D0FFF7E7FF04E000F0FC
:100CA00098F8204600F096F8257720680169C94336
:100CB000490717D4C168C943490713D46FF0040129
:100CC0000161022020772068806910F4407F20466F
:100CD00002D0FFF7CAFF04E000F07BF8204600F0E6
:100CE00079F8257720680169C943090716D4C168D6
:100CF000C943090712D46FF008010161042020776D
:100D00002068C0698007204602D0FFF7AEFF04E0EC
:100D100000F05FF8204600F05DF825772068016953
:100D2000C943C90617D4C168C943C90613D46FF0B3
:100D300010010161082020772068C06910F4407F0D
:100D4000204602D0FFF791FF04E000F042F8204671
:100D500000F040F8257720680169C943C90708D128
:100D6000C168C943C90704D1891E0161204600F04A
:100D700033F820680169C943090609D4C168C94329
:100D8000090605D46FF0800101612046FFF73EFFA0
:100D900020680169C943490609D4C168C9434906A5
:100DA00005D46FF040010161204600F01FF8206873
:100DB0000169C94389060BD4C168C943890607D4B0
:100DC0006FF0200101612046BDE87040FFF71FBFB2
:100DD00070BD70477047000000680349884201D128
:100DE000FFF76EBB7047000000100040704770B501
:100DF000040004D094F83900002510B106E0012069
:100E000070BD84F83850204600F022F8242084F881
:100E100039002068C16821F40051C160204600F00B
:100E20004BF92068016921F4904101612068416912
:100E300021F02A0141612068C16841F40051C1607C
:100E4000E563202084F8390084F83A00002070BD62
:100E500010B586B0044614216846FFF7FBF9144923
:100E60002068884221D113480021026842F0100214
:100E70000260006800F0100005900E481438026807
:100E800042F001020260006800F0010005904FF49A
:100E9000C06000900220CDE90101032003900720EB
:100EA000049069460448FFF715FA06B010BD00002B
:100EB000001001404438024000000240FEE70000FC
:100EC0000D4808B5016841F004010160016801F0B6
:100ED00004010091016841F080010160016801F0A6
:100EE00080010091016841F001010160006800F09B
:100EF0000100009008BD0000303802400C4810B5D9
:100F00000A4901604FF4E1314160002181600C2207
:100F1000C160C0E904128161C161FFF768FF002868
:100F200003D0BDE81040FFF7D3B910BD0010014059
:100F300010000020FEE770477047704770470000C0
:100F400030B593B030216846FFF784F914210CA81E
:100F5000FFF780F91A480025016841F080510160CF
:100F6000006800F0805011901648016841F440413B
:100F700001600068022400F44040119001200390B9
:100F800010200490009406940820CDE90750B42066
:100F9000CDE9090404200B906846FFF789FCFFF7B0
:100FA00043FB0CA90F2081E831004FF4A0500F90B3
:100FB000E002109005210CA8FFF76EFB13B030BDC6
:100FC00040380240007000400548016841F470015B
:100FD000016003494FF000608039086070470000ED
:100FE00088ED00E00148FFF741BE000050000020FE
:100FF000F0B50268254C264D264E274F274B4FF063
:10100000804CA04209D0604507D0A84205D0B0422C
:1010100003D0B84201D0984204D122F0700E4A6841
:1010200042EA0E02A0421BD0604519D0A84217D058
:10103000B04215D0B84213D0984211D0184DA842F2
:101040000ED0184DA8420BD0174DA84208D0174D0E
:10105000A84205D0164DA84202D0164DA84203D191
:1010600022F44075CA682A434D6922F080022A435F
:1010700002608A68C2620A688262A04201D0984215
:1010800001D10969016301214161F0BD0000014006
:101090000004004000080040000C00400004014033
:1010A0000040014000440140004801400018004059
:1010B000001C0040002000402DE9F041044600687B
:1010C0000169E26821F44051114301612169A0687E
:1010D000E26908436169114308432168CA6849F21B
:1010E0000C639A430243CA6020684169A26921F4F3
:1010F000407111434161E069192764253226B0F53A
:10110000004F354A354920684FF0000806D0884224
:1011100001D0904236D1FFF789FB35E0884201D0FB
:10112000904202D1FFF782FB01E0FFF76FFB61689D
:101130004A18A0FB070148EB0803FFF753F80146E4
:10114000B0FBF5F00201B1FBF5F06FF01803584366
:1011500001EB800006EBC000B0FBF5F000F0F800FA
:1011600002EB4002B1FBF5F0584301EB800006EBC7
:10117000C000B0FBF5F000F0070021681044886063
:10118000BDE8F081FFF742FB61688B0F8A00A0FB8E
:101190000701FFF727F80146B0FBF5F06FF01802E2
:1011A000504301EB800006EB0010B0FBF5F000F0BF
:1011B000F002B1FBF5F002EB0012B1FBF5F06FF0BD
:1011C0001803584301EB800006EB0010B0FBF5F06C
:1011D00000F00F00D1E700000014014000100140B2
:1011E000FEE70907090E002804DB00F1E02080F883
:1011F0000014704700F00F0000F1E02080F8141D8B
:10120000704702E008C8121F08C1002AFAD17047CF
:101210007047002001E001C1121F002AFBD1704776
:101220002DE9F0411A4886B00024016841F08001A0
:1012300001600068012200F08000DFF8588095020C
:10124000059029464046FFF72FF90122D602314684
:101250004046FFF729F90122170339464046FFF7B8
:1012600023F90120CDE90104694640460095039425
:10127000FFF730F8694640460096FFF72BF86946BD
:1012800040460097FFF726F806B00120BDE8F08140
:1012900030380240001C0240FFF71AF9FFF750FEF9
:1012A000FFF70EFEFFF7BCFFFFF728FEFEE700008A
:1012B0000000000000000102030406070809000006
:1012C0000000010203040000E812000800000020F2
:1012D0001000000002120008F812000810000020A0
:1012E000800400001212000801000000100000003D
:0812F000000000000024F400DE
:04000005080001AD41
:00000001FF
